{
  "contractName": "Predictions",
  "abi": [
    {
      "anonymous": false,
      "inputs": [
        {
          "indexed": false,
          "internalType": "uint256",
          "name": "id",
          "type": "uint256"
        },
        {
          "indexed": false,
          "internalType": "string",
          "name": "symbol",
          "type": "string"
        },
        {
          "indexed": false,
          "internalType": "int256",
          "name": "priceTimes100",
          "type": "int256"
        },
        {
          "indexed": false,
          "internalType": "uint256",
          "name": "timestamp",
          "type": "uint256"
        },
        {
          "indexed": false,
          "internalType": "address",
          "name": "reporter",
          "type": "address"
        }
      ],
      "name": "PredictionStored",
      "type": "event"
    },
    {
      "inputs": [],
      "name": "nextId",
      "outputs": [
        {
          "internalType": "uint256",
          "name": "",
          "type": "uint256"
        }
      ],
      "stateMutability": "view",
      "type": "function",
      "constant": true
    },
    {
      "inputs": [
        {
          "internalType": "uint256",
          "name": "",
          "type": "uint256"
        }
      ],
      "name": "predictions",
      "outputs": [
        {
          "internalType": "uint256",
          "name": "id",
          "type": "uint256"
        },
        {
          "internalType": "uint256",
          "name": "timestamp",
          "type": "uint256"
        },
        {
          "internalType": "string",
          "name": "symbol",
          "type": "string"
        },
        {
          "internalType": "int256",
          "name": "priceTimes100",
          "type": "int256"
        },
        {
          "internalType": "address",
          "name": "reporter",
          "type": "address"
        }
      ],
      "stateMutability": "view",
      "type": "function",
      "constant": true
    },
    {
      "inputs": [
        {
          "internalType": "string",
          "name": "symbol",
          "type": "string"
        },
        {
          "internalType": "int256",
          "name": "priceTimes100",
          "type": "int256"
        }
      ],
      "name": "storePrediction",
      "outputs": [
        {
          "internalType": "uint256",
          "name": "",
          "type": "uint256"
        }
      ],
      "stateMutability": "nonpayable",
      "type": "function"
    },
    {
      "inputs": [
        {
          "internalType": "uint256",
          "name": "id",
          "type": "uint256"
        }
      ],
      "name": "getPrediction",
      "outputs": [
        {
          "internalType": "uint256",
          "name": "",
          "type": "uint256"
        },
        {
          "internalType": "uint256",
          "name": "",
          "type": "uint256"
        },
        {
          "internalType": "string",
          "name": "",
          "type": "string"
        },
        {
          "internalType": "int256",
          "name": "",
          "type": "int256"
        },
        {
          "internalType": "address",
          "name": "",
          "type": "address"
        }
      ],
      "stateMutability": "view",
      "type": "function",
      "constant": true
    }
  ],
  "bytecode": "0x6080604052600160005534801561001557600080fd5b50610953806100256000396000f3fe608060405234801561001057600080fd5b506004361061004b5760003560e01c80624fbbb01461005057806361b8ce8c14610084578063a4512696146100a2578063fe83bece146100d2575b600080fd5b61006a600480360381019061006591906105d4565b610106565b60405161007b959493929190610707565b60405180910390f35b61008c6101e4565b6040516100999190610690565b60405180910390f35b6100bc60048036038101906100b7919061057c565b6101ea565b6040516100c99190610690565b60405180910390f35b6100ec60048036038101906100e791906105d4565b61036e565b6040516100fd959493929190610707565b60405180910390f35b600160205280600052604060002060009150905080600001549080600101549080600201805461013590610805565b80601f016020809104026020016040519081016040528092919081815260200182805461016190610805565b80156101ae5780601f10610183576101008083540402835291602001916101ae565b820191906000526020600020905b81548152906001019060200180831161019157829003601f168201915b5050505050908060030154908060040160009054906101000a900473ffffffffffffffffffffffffffffffffffffffff16905085565b60005481565b60008060005490506040518060a0016040528082815260200142815260200186868080601f016020809104026020016040519081016040528093929190818152602001838380828437600081840152601f19601f8201169050808301925050505050505081526020018481526020013373ffffffffffffffffffffffffffffffffffffffff1681525060016000838152602001908152602001600020600082015181600001556020820151816001015560408201518160020190805190602001906102b6929190610465565b506060820151816003015560808201518160040160006101000a81548173ffffffffffffffffffffffffffffffffffffffff021916908373ffffffffffffffffffffffffffffffffffffffff1602179055509050507fe2470ebfa722d424a737ebfc6ad4c6a3c7c6ccc2246611403c846f6a601dc57c818686864233604051610344969594939291906106ab565b60405180910390a160008081548092919061035e90610837565b9190505550809150509392505050565b60008060606000806000600160008881526020019081526020016000209050806000015481600101548260020183600301548460040160009054906101000a900473ffffffffffffffffffffffffffffffffffffffff168280546103d190610805565b80601f01602080910402602001604051908101604052809291908181526020018280546103fd90610805565b801561044a5780601f1061041f5761010080835404028352916020019161044a565b820191906000526020600020905b81548152906001019060200180831161042d57829003601f168201915b50505050509250955095509550955095505091939590929450565b82805461047190610805565b90600052602060002090601f01602090048101928261049357600085556104da565b82601f106104ac57805160ff19168380011785556104da565b828001600101855582156104da579182015b828111156104d95782518255916020019190600101906104be565b5b5090506104e791906104eb565b5090565b5b808211156105045760008160009055506001016104ec565b5090565b600081359050610517816108ef565b92915050565b60008083601f84011261052f57600080fd5b8235905067ffffffffffffffff81111561054857600080fd5b60208301915083600182028301111561056057600080fd5b9250929050565b60008135905061057681610906565b92915050565b60008060006040848603121561059157600080fd5b600084013567ffffffffffffffff8111156105ab57600080fd5b6105b78682870161051d565b935093505060206105ca86828701610508565b9150509250925092565b6000602082840312156105e657600080fd5b60006105f484828501610567565b91505092915050565b6106068161077d565b82525050565b6106158161078f565b82525050565b6000610627838561076c565b93506106348385846107c3565b61063d836108de565b840190509392505050565b600061065382610761565b61065d818561076c565b935061066d8185602086016107d2565b610676816108de565b840191505092915050565b61068a816107b9565b82525050565b60006020820190506106a56000830184610681565b92915050565b600060a0820190506106c06000830189610681565b81810360208301526106d381878961061b565b90506106e2604083018661060c565b6106ef6060830185610681565b6106fc60808301846105fd565b979650505050505050565b600060a08201905061071c6000830188610681565b6107296020830187610681565b818103604083015261073b8186610648565b905061074a606083018561060c565b61075760808301846105fd565b9695505050505050565b600081519050919050565b600082825260208201905092915050565b600061078882610799565b9050919050565b6000819050919050565b600073ffffffffffffffffffffffffffffffffffffffff82169050919050565b6000819050919050565b82818337600083830152505050565b60005b838110156107f05780820151818401526020810190506107d5565b838111156107ff576000848401525b50505050565b6000600282049050600182168061081d57607f821691505b60208210811415610831576108306108af565b5b50919050565b6000610842826107b9565b91507fffffffffffffffffffffffffffffffffffffffffffffffffffffffffffffffff82141561087557610874610880565b5b600182019050919050565b7f4e487b7100000000000000000000000000000000000000000000000000000000600052601160045260246000fd5b7f4e487b7100000000000000000000000000000000000000000000000000000000600052602260045260246000fd5b6000601f19601f8301169050919050565b6108f88161078f565b811461090357600080fd5b50565b61090f816107b9565b811461091a57600080fd5b5056fea264697066735822122080be33af82e4ef4b06e6be60e740618c26e54d1fbff967e4ce0b2c72771cdcd164736f6c63430008000033",
  "immutableReferences": {},
  "source": "// SPDX-License-Identifier: MIT\r\npragma solidity ^0.8.0;\r\n\r\n\r\ncontract Predictions {\r\nstruct Prediction {\r\nuint256 id;\r\nuint256 timestamp; // unix time\r\nstring symbol;\r\nint256 priceTimes100; // store price * 100 to avoid decimals\r\naddress reporter;\r\n}\r\n\r\n\r\nuint256 public nextId = 1;\r\nmapping(uint256 => Prediction) public predictions;\r\nevent PredictionStored(uint256 id, string symbol, int256 priceTimes100, uint256 timestamp, address reporter);\r\n\r\n\r\nfunction storePrediction(string calldata symbol, int256 priceTimes100) external returns (uint256) {\r\nuint256 id = nextId;\r\npredictions[id] = Prediction(id, block.timestamp, symbol, priceTimes100, msg.sender);\r\nemit PredictionStored(id, symbol, priceTimes100, block.timestamp, msg.sender);\r\nnextId++;\r\nreturn id;\r\n}\r\n\r\n\r\nfunction getPrediction(uint256 id) external view returns (uint256, uint256, string memory, int256, address) {\r\nPrediction storage p = predictions[id];\r\nreturn (p.id, p.timestamp, p.symbol, p.priceTimes100, p.reporter);\r\n}\r\n}",
  "sourcePath": "C:\\Users\\cathe\\OneDrive\\Desktop\\bc\\contracts\\Predictions.sol",
  "compiler": {
    "name": "solc",
    "version": "0.8.0+commit.c7dfd78e.Emscripten.clang"
  },
  "schemaVersion": "3.4.16",
  "updatedAt": "2025-10-25T05:22:46.733Z",
  "networkType": "ethereum",
  "devdoc": {
    "kind": "dev",
    "methods": {},
    "version": 1
  },
  "userdoc": {
    "kind": "user",
    "methods": {},
    "version": 1
  }
}